:100000000C9434000C943E000C943E000C943E0082
:100010000C943E000C943E000C943E000C943E0068
:100020000C943E000C943E000C943E000C943E0058
:100030000C943E000C943E000C943E000C943E0048
:100040000C943E000C943E000C943E000C943E0038
:100050000C943E000C943E000C943E000C943E0028
:100060000C943E000C943E0011241FBECFEFD8E04C
:10007000DEBFCDBF0E9440000C9463000C940000D2
:100080008FEF8AB98FE384B986EA94EA0197F1F792
:100090001BB815B84FEF4BB92D9A25E030E005C0DD
:1000A0000197F1F72150310919F086EA94EAF8CF67
:1000B0001BB82D9886EA94EA0197F1F786EA94EA4C
:0A00C0000197F1F7E8CFF894FFCFA5
:00000001FF
